{
    "contractName": "SupplyChain",
    "abi": [
        {
            "anonymous": false,
            "inputs": [
                {
                    "indexed": true,
                    "internalType": "uint32",
                    "name": "productId",
                    "type": "uint32"
                }
            ],
            "name": "Transfer",
            "type": "event"
        },
        {
            "constant": true,
            "inputs": [
                {
                    "internalType": "uint32",
                    "name": "_uid",
                    "type": "uint32"
                },
                {
                    "internalType": "string",
                    "name": "_uname",
                    "type": "string"
                },
                {
                    "internalType": "string",
                    "name": "_pass",
                    "type": "string"
                },
                {
                    "internalType": "string",
                    "name": "_utype",
                    "type": "string"
                }
            ],
            "name": "authenticateParticipant",
            "outputs": [
                {
                    "internalType": "bool",
                    "name": "",
                    "type": "bool"
                }
            ],
            "payable": false,
            "stateMutability": "view",
            "type": "function"
        },
        {
            "constant": false,
            "inputs": [
                {
                    "internalType": "string",
                    "name": "_name",
                    "type": "string"
                },
                {
                    "internalType": "string",
                    "name": "_pass",
                    "type": "string"
                },
                {
                    "internalType": "address",
                    "name": "_pAdd",
                    "type": "address"
                },
                {
                    "internalType": "string",
                    "name": "_pType",
                    "type": "string"
                }
            ],
            "name": "createParticipant",
            "outputs": [
                {
                    "internalType": "uint32",
                    "name": "",
                    "type": "uint32"
                }
            ],
            "payable": false,
            "stateMutability": "nonpayable",
            "type": "function"
        },
        {
            "constant": false,
            "inputs": [
                {
                    "internalType": "uint32",
                    "name": "_ownerId",
                    "type": "uint32"
                },
                {
                    "internalType": "string",
                    "name": "_modelNumber",
                    "type": "string"
                },
                {
                    "internalType": "string",
                    "name": "_partNumber",
                    "type": "string"
                },
                {
                    "internalType": "string",
                    "name": "_serialNumber",
                    "type": "string"
                },
                {
                    "internalType": "uint32",
                    "name": "_productCost",
                    "type": "uint32"
                },
                {
                    "internalType": "uint32",
                    "name": "_timestamp",
                    "type": "uint32"
                }
            ],
            "name": "createProduct",
            "outputs": [
                {
                    "internalType": "uint32",
                    "name": "",
                    "type": "uint32"
                }
            ],
            "payable": false,
            "stateMutability": "nonpayable",
            "type": "function"
        },
        {
            "constant": true,
            "inputs": [
                {
                    "internalType": "uint32",
                    "name": "_p_id",
                    "type": "uint32"
                }
            ],
            "name": "getParticipantDetails",
            "outputs": [
                {
                    "internalType": "string",
                    "name": "",
                    "type": "string"
                },
                {
                    "internalType": "address",
                    "name": "",
                    "type": "address"
                },
                {
                    "internalType": "string",
                    "name": "",
                    "type": "string"
                }
            ],
            "payable": false,
            "stateMutability": "view",
            "type": "function"
        },
        {
            "constant": true,
            "inputs": [
                {
                    "internalType": "uint32",
                    "name": "_productId",
                    "type": "uint32"
                }
            ],
            "name": "getProductDetails",
            "outputs": [
                {
                    "internalType": "string",
                    "name": "",
                    "type": "string"
                },
                {
                    "internalType": "string",
                    "name": "",
                    "type": "string"
                },
                {
                    "internalType": "string",
                    "name": "",
                    "type": "string"
                },
                {
                    "internalType": "uint32",
                    "name": "",
                    "type": "uint32"
                },
                {
                    "internalType": "address",
                    "name": "",
                    "type": "address"
                },
                {
                    "internalType": "uint32",
                    "name": "",
                    "type": "uint32"
                }
            ],
            "payable": false,
            "stateMutability": "view",
            "type": "function"
        },
        {
            "constant": true,
            "inputs": [
                {
                    "internalType": "uint32",
                    "name": "_prodId",
                    "type": "uint32"
                }
            ],
            "name": "getProductTrack",
            "outputs": [
                {
                    "internalType": "uint32[]",
                    "name": "",
                    "type": "uint32[]"
                }
            ],
            "payable": false,
            "stateMutability": "view",
            "type": "function"
        },
        {
            "constant": true,
            "inputs": [
                {
                    "internalType": "uint32",
                    "name": "_regId",
                    "type": "uint32"
                }
            ],
            "name": "getRegistrationDetails",
            "outputs": [
                {
                    "internalType": "uint32",
                    "name": "",
                    "type": "uint32"
                },
                {
                    "internalType": "uint32",
                    "name": "",
                    "type": "uint32"
                },
                {
                    "internalType": "address",
                    "name": "",
                    "type": "address"
                },
                {
                    "internalType": "uint32",
                    "name": "",
                    "type": "uint32"
                }
            ],
            "payable": false,
            "stateMutability": "view",
            "type": "function"
        },
        {
            "constant": true,
            "inputs": [],
            "name": "p_id",
            "outputs": [
                {
                    "internalType": "uint32",
                    "name": "",
                    "type": "uint32"
                }
            ],
            "payable": false,
            "stateMutability": "view",
            "type": "function"
        },
        {
            "constant": true,
            "inputs": [
                {
                    "internalType": "uint32",
                    "name": "",
                    "type": "uint32"
                }
            ],
            "name": "participants",
            "outputs": [
                {
                    "internalType": "string",
                    "name": "userName",
                    "type": "string"
                },
                {
                    "internalType": "string",
                    "name": "password",
                    "type": "string"
                },
                {
                    "internalType": "string",
                    "name": "participantType",
                    "type": "string"
                },
                {
                    "internalType": "address",
                    "name": "participantAddress",
                    "type": "address"
                }
            ],
            "payable": false,
            "stateMutability": "view",
            "type": "function"
        },
        {
            "constant": true,
            "inputs": [
                {
                    "internalType": "uint32",
                    "name": "",
                    "type": "uint32"
                },
                {
                    "internalType": "uint256",
                    "name": "",
                    "type": "uint256"
                }
            ],
            "name": "productTrack",
            "outputs": [
                {
                    "internalType": "uint32",
                    "name": "",
                    "type": "uint32"
                }
            ],
            "payable": false,
            "stateMutability": "view",
            "type": "function"
        },
        {
            "constant": true,
            "inputs": [
                {
                    "internalType": "uint32",
                    "name": "",
                    "type": "uint32"
                }
            ],
            "name": "products",
            "outputs": [
                {
                    "internalType": "string",
                    "name": "modelNumber",
                    "type": "string"
                },
                {
                    "internalType": "string",
                    "name": "partNumber",
                    "type": "string"
                },
                {
                    "internalType": "string",
                    "name": "serialNumber",
                    "type": "string"
                },
                {
                    "internalType": "address",
                    "name": "productOwner",
                    "type": "address"
                },
                {
                    "internalType": "uint32",
                    "name": "cost",
                    "type": "uint32"
                },
                {
                    "internalType": "uint32",
                    "name": "createTimeStamp",
                    "type": "uint32"
                }
            ],
            "payable": false,
            "stateMutability": "view",
            "type": "function"
        },
        {
            "constant": true,
            "inputs": [],
            "name": "r_id",
            "outputs": [
                {
                    "internalType": "uint32",
                    "name": "",
                    "type": "uint32"
                }
            ],
            "payable": false,
            "stateMutability": "view",
            "type": "function"
        },
        {
            "constant": true,
            "inputs": [
                {
                    "internalType": "uint32",
                    "name": "",
                    "type": "uint32"
                }
            ],
            "name": "registrations",
            "outputs": [
                {
                    "internalType": "uint32",
                    "name": "productId",
                    "type": "uint32"
                },
                {
                    "internalType": "uint32",
                    "name": "ownerId",
                    "type": "uint32"
                },
                {
                    "internalType": "uint32",
                    "name": "transferTimeStamp",
                    "type": "uint32"
                },
                {
                    "internalType": "address",
                    "name": "productOwner",
                    "type": "address"
                }
            ],
            "payable": false,
            "stateMutability": "view",
            "type": "function"
        },
        {
            "constant": false,
            "inputs": [
                {
                    "internalType": "uint32",
                    "name": "_user1Id",
                    "type": "uint32"
                },
                {
                    "internalType": "uint32",
                    "name": "_user2Id",
                    "type": "uint32"
                },
                {
                    "internalType": "uint32",
                    "name": "_prodId",
                    "type": "uint32"
                },
                {
                    "internalType": "uint32",
                    "name": "_timestamp",
                    "type": "uint32"
                }
            ],
            "name": "transferToOwner",
            "outputs": [
                {
                    "internalType": "bool",
                    "name": "",
                    "type": "bool"
                }
            ],
            "payable": false,
            "stateMutability": "nonpayable",
            "type": "function"
        },
        {
            "constant": true,
            "inputs": [],
            "name": "u_id",
            "outputs": [
                {
                    "internalType": "uint32",
                    "name": "",
                    "type": "uint32"
                }
            ],
            "payable": false,
            "stateMutability": "view",
            "type": "function"
        }
    ],
    "bytecode": "6080604052600080546001600160601b031916905534801561002057600080fd5b50612892806100306000396000f3fe608060405234801561001057600080fd5b50600436106100f55760003560e01c806389138c0011610097578063b9d93d5f11610066578063b9d93d5f14610a01578063bf712fd614610a5d578063d953f30514610ae4578063e9f06d2b14610cb2576100f5565b806389138c001461078c578063997c51471461094b5780639dfb56ac14610986578063a8997d2e1461098e576100f5565b80635617f01e116100d35780635617f01e146102d0578063721b5743146103ea5780637d0a9ac9146105b957806383a32c551461072f576100f5565b8063043ba46a146100fa5780631a0748021461011b57806328d5b69a14610144575b600080fd5b610102610cba565b6040805163ffffffff9092168252519081900360200190f35b6101026004803603604081101561013157600080fd5b5063ffffffff8135169060200135610cc6565b6101676004803603602081101561015a57600080fd5b503563ffffffff16610d0c565b6040805163ffffffff80861660608301526001600160a01b0385166080830152831660a082015260c080825288519082015287519091829160208084019284019160e08501918c019080838360005b838110156101ce5781810151838201526020016101b6565b50505050905090810190601f1680156101fb5780820380516001836020036101000a031916815260200191505b5084810383528951815289516020918201918b019080838360005b8381101561022e578181015183820152602001610216565b50505050905090810190601f16801561025b5780820380516001836020036101000a031916815260200191505b5084810382528851815288516020918201918a019080838360005b8381101561028e578181015183820152602001610276565b50505050905090810190601f1680156102bb5780820380516001836020036101000a031916815260200191505b50995050505050505050505060405180910390f35b6102f3600480360360208110156102e657600080fd5b503563ffffffff16610f15565b6040518080602001846001600160a01b03166001600160a01b0316815260200180602001838103835286818151815260200191508051906020019080838360005b8381101561034c578181015183820152602001610334565b50505050905090810190601f1680156103795780820380516001836020036101000a031916815260200191505b50838103825284518152845160209182019186019080838360005b838110156103ac578181015183820152602001610394565b50505050905090810190601f1680156103d95780820380516001836020036101000a031916815260200191505b509550505050505060405180910390f35b6105a56004803603608081101561040057600080fd5b63ffffffff8235169190810190604081016020820135600160201b81111561042757600080fd5b82018360208201111561043957600080fd5b803590602001918460018302840111600160201b8311171561045a57600080fd5b91908080601f0160208091040260200160405190810160405280939291908181526020018383808284376000920191909152509295949360208101935035915050600160201b8111156104ac57600080fd5b8201836020820111156104be57600080fd5b803590602001918460018302840111600160201b831117156104df57600080fd5b91908080601f0160208091040260200160405190810160405280939291908181526020018383808284376000920191909152509295949360208101935035915050600160201b81111561053157600080fd5b82018360208201111561054357600080fd5b803590602001918460018302840111600160201b8311171561056457600080fd5b91908080601f016020809104026020016040519081016040528093929190818152602001838380828437600092019190915250929550611069945050505050565b604080519115158252519081900360200190f35b6105dc600480360360208110156105cf57600080fd5b503563ffffffff166113ac565b604080516001600160a01b0383166060820152608080825286519082015285519091829160208084019284019160a08501918a019080838360005b8381101561062f578181015183820152602001610617565b50505050905090810190601f16801561065c5780820380516001836020036101000a031916815260200191505b50848103835287518152875160209182019189019080838360005b8381101561068f578181015183820152602001610677565b50505050905090810190601f1680156106bc5780820380516001836020036101000a031916815260200191505b50848103825286518152865160209182019188019080838360005b838110156106ef5781810151838201526020016106d7565b50505050905090810190601f16801561071c5780820380516001836020036101000a031916815260200191505b5097505050505050505060405180910390f35b6107526004803603602081101561074557600080fd5b503563ffffffff16611586565b6040805163ffffffff9586168152938516602085015291909316828201526001600160a01b03909216606082015290519081900360800190f35b610102600480360360808110156107a257600080fd5b810190602081018135600160201b8111156107bc57600080fd5b8201836020820111156107ce57600080fd5b803590602001918460018302840111600160201b831117156107ef57600080fd5b91908080601f0160208091040260200160405190810160405280939291908181526020018383808284376000920191909152509295949360208101935035915050600160201b81111561084157600080fd5b82018360208201111561085357600080fd5b803590602001918460018302840111600160201b8311171561087457600080fd5b91908080601f01602080910402602001604051908101604052809392919081815260200183838082843760009201919091525092956001600160a01b03853516959094909350604081019250602001359050600160201b8111156108d757600080fd5b8201836020820111156108e957600080fd5b803590602001918460018302840111600160201b8311171561090a57600080fd5b91908080601f0160208091040260200160405190810160405280939291908181526020018383808284376000920191909152509295506115c4945050505050565b6105a56004803603608081101561096157600080fd5b5063ffffffff81358116916020810135821691604082013581169160600135166117b5565b610102611ee7565b6109b1600480360360208110156109a457600080fd5b503563ffffffff16611efa565b60408051602080825283518183015283519192839290830191858101910280838360005b838110156109ed5781810151838201526020016109d5565b505050509050019250505060405180910390f35b610a2460048036036020811015610a1757600080fd5b503563ffffffff16611f8f565b6040805163ffffffff958616815293851660208501526001600160a01b0390921683830152909216606082015290519081900360800190f35b610a8060048036036020811015610a7357600080fd5b503563ffffffff1661200a565b604080516001600160a01b038516606082015263ffffffff8481166080830152831660a082015260c080825288519082015287519091829160208084019284019160e08501918c0190808383600083156101ce5781810151838201526020016101b6565b610102600480360360c0811015610afa57600080fd5b63ffffffff8235169190810190604081016020820135600160201b811115610b2157600080fd5b820183602082011115610b3357600080fd5b803590602001918460018302840111600160201b83111715610b5457600080fd5b91908080601f0160208091040260200160405190810160405280939291908181526020018383808284376000920191909152509295949360208101935035915050600160201b811115610ba657600080fd5b820183602082011115610bb857600080fd5b803590602001918460018302840111600160201b83111715610bd957600080fd5b91908080601f0160208091040260200160405190810160405280939291908181526020018383808284376000920191909152509295949360208101935035915050600160201b811115610c2b57600080fd5b820183602082011115610c3d57600080fd5b803590602001918460018302840111600160201b83111715610c5e57600080fd5b91908080601f0160208091040260200160405190810160405280939291908181526020018383808284376000920191909152509295505063ffffffff83358116945060209093013590921691506121fe9050565b6101026124d4565b60005463ffffffff1681565b60046020528160005260406000208181548110610cdf57fe5b9060005260206000209060089182820401919006600402915091509054906101000a900463ffffffff1681565b63ffffffff81811660009081526001602081815260408084206003810154815483516002610100838916150260001901909216829004601f8101879004870282018701909552848152606098899889989097889788979692870195870194600160a01b84048516946001600160a01b03851694600160c01b9004169290918891830182828015610ddd5780601f10610db257610100808354040283529160200191610ddd565b820191906000526020600020905b815481529060010190602001808311610dc057829003601f168201915b5050885460408051602060026001851615610100026000190190941693909304601f8101849004840282018401909252818152959b508a945092508401905082828015610e6b5780601f10610e4057610100808354040283529160200191610e6b565b820191906000526020600020905b815481529060010190602001808311610e4e57829003601f168201915b5050875460408051602060026001851615610100026000190190941693909304601f8101849004840282018401909252818152959a5089945092508401905082828015610ef95780601f10610ece57610100808354040283529160200191610ef9565b820191906000526020600020905b815481529060010190602001808311610edc57829003601f168201915b5050505050935095509550955095509550955091939550919395565b63ffffffff8116600090815260026020818152604080842060038101548154835161010060018316150260001901909116869004601f810186900486028201860190945283815260609695879593946001600160a01b0390931693908501928591830182828015610fc75780601f10610f9c57610100808354040283529160200191610fc7565b820191906000526020600020905b815481529060010190602001808311610faa57829003601f168201915b5050845460408051602060026001851615610100026000190190941693909304601f8101849004840282018401909252818152959850869450925084019050828280156110555780601f1061102a57610100808354040283529160200191611055565b820191906000526020600020905b81548152906001019060200180831161103857829003601f168201915b505050505090509250925092509193909250565b6000816040516020018082805190602001908083835b6020831061109e5780518252601f19909201916020918201910161107f565b6001836020036101000a03801982511681845116808217855250505050505090500191505060405160208183030381529060405280519060200120600260008763ffffffff1663ffffffff16815260200190815260200160002060020160405160200180828054600181600116156101000203166002900480156111595780601f10611137576101008083540402835291820191611159565b820191906000526020600020905b815481529060010190602001808311611145575b50509150506040516020818303038152906040528051906020012014156113a057836040516020018082805190602001908083835b602083106111ad5780518252601f19909201916020918201910161118e565b6001836020036101000a03801982511681845116808217855250505050505090500191505060405160208183030381529060405280519060200120600260008763ffffffff1663ffffffff16815260200190815260200160002060000160405160200180828054600181600116156101000203166002900480156112685780601f10611246576101008083540402835291820191611268565b820191906000526020600020905b815481529060010190602001808311611254575b50509150506040516020818303038152906040528051906020012014156113a057826040516020018082805190602001908083835b602083106112bc5780518252601f19909201916020918201910161129d565b6001836020036101000a03801982511681845116808217855250505050505090500191505060405160208183030381529060405280519060200120600260008763ffffffff1663ffffffff16815260200190815260200160002060010160405160200180828054600181600116156101000203166002900480156113775780601f10611355576101008083540402835291820191611377565b820191906000526020600020905b815481529060010190602001808311611363575b50509150506040516020818303038152906040528051906020012014156113a0575060016113a4565b5060005b949350505050565b600260208181526000928352604092839020805484516001821615610100026000190190911693909304601f810183900483028401830190945283835292839183018282801561143d5780601f106114125761010080835404028352916020019161143d565b820191906000526020600020905b81548152906001019060200180831161142057829003601f168201915b505050505090806001018054600181600116156101000203166002900480601f0160208091040260200160405190810160405280929190818152602001828054600181600116156101000203166002900480156114db5780601f106114b0576101008083540402835291602001916114db565b820191906000526020600020905b8154815290600101906020018083116114be57829003601f168201915b50505060028085018054604080516020601f600019610100600187161502019094169590950492830185900485028101850190915281815295969594509092509083018282801561156d5780601f106115425761010080835404028352916020019161156d565b820191906000526020600020905b81548152906001019060200180831161155057829003601f168201915b505050600390930154919250506001600160a01b031684565b60036020526000908152604090205463ffffffff80821691600160201b8104821691600160401b82041690600160601b90046001600160a01b031684565b600080826040516020018082805190602001908083835b602083106115fa5780518252601f1990920191602091820191016115db565b6001836020036101000a03801982511681845116808217855250505050505090500191505060405160208183030381529060405280519060200120905060405180806b26b0b73ab330b1ba3ab932b960a11b815250600c01905060405180910390208114806116845750604080516729bab8383634b2b960c11b8152905190819003600801902081145b806116aa5750604080516721b7b739bab6b2b960c11b8152905190819003600801902081145b6116e55760405162461bcd60e51b81526004018080602001828103825260418152602001806127d16041913960600191505060405180910390fd5b6000805467ffffffff00000000198116600160201b9182900463ffffffff908116600181019091169092021782558082526002602090815260409092208851919261173392908a01906126dd565b5063ffffffff811660009081526002602090815260409091208751611760926001909201918901906126dd565b5063ffffffff811660009081526002602081815260409092206003810180546001600160a01b0319166001600160a01b038a1617905586516117aa939190920191908701906126dd565b509695505050505050565b63ffffffff821660009081526001602052604081206003015483906001600160a01b031633146118165760405162461bcd60e51b81526004018080602001828103825260228152602001806128126022913960400191505060405180910390fd5b61181e61275b565b63ffffffff87166000908152600260208181526040928390208351815460a0601f600019610100600185161502019092169590950490810184900490930281018401909452608084018281529092849284918401828280156118c15780601f10611896576101008083540402835291602001916118c1565b820191906000526020600020905b8154815290600101906020018083116118a457829003601f168201915b50505050508152602001600182018054600181600116156101000203166002900480601f0160208091040260200160405190810160405280929190818152602001828054600181600116156101000203166002900480156119635780601f1061193857610100808354040283529160200191611963565b820191906000526020600020905b81548152906001019060200180831161194657829003601f168201915b5050509183525050600282810180546040805160206001841615610100026000190190931694909404601f810183900483028501830190915280845293810193908301828280156119f55780601f106119ca576101008083540402835291602001916119f5565b820191906000526020600020905b8154815290600101906020018083116119d857829003601f168201915b5050509183525050600391909101546001600160a01b03166020909101529050611a1d61275b565b63ffffffff87166000908152600260208181526040928390208351815460a0601f60001961010060018516150201909216959095049081018490049093028101840190945260808401828152909284928491840182828015611ac05780601f10611a9557610100808354040283529160200191611ac0565b820191906000526020600020905b815481529060010190602001808311611aa357829003601f168201915b50505050508152602001600182018054600181600116156101000203166002900480601f016020809104026020016040519081016040528092919081815260200182805460018160011615610100020316600290048015611b625780601f10611b3757610100808354040283529160200191611b62565b820191906000526020600020905b815481529060010190602001808311611b4557829003601f168201915b5050509183525050600282810180546040805160206001841615610100026000190190931694909404601f81018390048302850183019091528084529381019390830182828015611bf45780601f10611bc957610100808354040283529160200191611bf4565b820191906000526020600020905b815481529060010190602001808311611bd757829003601f168201915b5050509183525050600391909101546001600160a01b03166020918201526040808501519051815193945060009391929081019182918401908083835b60208310611c505780518252601f199092019160209182019101611c31565b6001836020036101000a038019825116818451168082178552505050505050905001915050604051602081830303815290604052805190602001209050600082604001516040516020018082805190602001908083835b60208310611cc65780518252601f199092019160209182019101611ca7565b6001836020036101000a03801982511681845116808217855250505050505090500191505060405160208183030381529060405280519060200120905060405180806b26b0b73ab330b1ba3ab932b960a11b815250600c019050604051809103902082148015611d515750604080516729bab8383634b2b960c11b8152905190819003600801902081145b15611dad5760608301805163ffffffff8a16600090815260016020526040902060030180546001600160a01b0319166001600160a01b0390921691909117905551611d9f9089908b8a6124e7565b506001955050505050611ede565b604080516729bab8383634b2b960c11b8152905190819003600801902082148015611df35750604080516729bab8383634b2b960c11b8152905190819003600801902081145b15611e415760608301805163ffffffff8a16600090815260016020526040902060030180546001600160a01b0319166001600160a01b0390921691909117905551611d9f9089908b8a6124e7565b604080516729bab8383634b2b960c11b8152905190819003600801902082148015611e875750604080516721b7b739bab6b2b960c11b8152905190819003600801902081145b15611ed55760608301805163ffffffff8a16600090815260016020526040902060030180546001600160a01b0319166001600160a01b0390921691909117905551611d9f9089908b8a6124e7565b60009550505050505b50949350505050565b600054600160401b900463ffffffff1681565b63ffffffff8116600090815260046020908152604091829020805483518184028101840190945280845260609392830182828015611f8357602002820191906000526020600020906000905b82829054906101000a900463ffffffff1663ffffffff1681526020019060040190602082600301049283019260010382029150808411611f465790505b50505050509050919050565b600080600080611f9d61278c565b5050505063ffffffff91821660009081526003602090815260409182902082516080810184529054808616808352600160201b82048716938301849052600160401b8204909616938201849052600160601b90046001600160a01b03166060909101819052939490939250565b60016020818152600092835260409283902080548451600294821615610100026000190190911693909304601f810183900483028401830190945283835292839183018282801561209c5780601f106120715761010080835404028352916020019161209c565b820191906000526020600020905b81548152906001019060200180831161207f57829003601f168201915b505050505090806001018054600181600116156101000203166002900480601f01602080910402602001604051908101604052809291908181526020018280546001816001161561010002031660029004801561213a5780601f1061210f5761010080835404028352916020019161213a565b820191906000526020600020905b81548152906001019060200180831161211d57829003601f168201915b50505060028085018054604080516020601f60001961010060018716150201909416959095049283018590048502810185019091528181529596959450909250908301828280156121cc5780601f106121a1576101008083540402835291602001916121cc565b820191906000526020600020905b8154815290600101906020018083116121af57829003601f168201915b505050600390930154919250506001600160a01b0381169063ffffffff600160a01b8204811691600160c01b90041686565b604080516b26b0b73ab330b1ba3ab932b960a11b8152815190819003600c01812063ffffffff89166000908152600260208181529482208101805492959394909301918291849160001961010060018316150201160480156122975780601f10612275576101008083540402835291820191612297565b820191906000526020600020905b815481529060010190602001808311612283575b505091505060405160208183030381529060405280519060200120146122ee5760405162461bcd60e51b815260040180806020018281038252602a815260200180612834602a913960400191505060405180910390fd5b6000805463ffffffff198116600163ffffffff928316818101909316919091178355818352602090815260409092208851919261232e92908a01906126dd565b5063ffffffff81166000908152600160208181526040909220885161235b939190920191908901906126dd565b5063ffffffff811660009081526001602090815260409091208651612388926002909201918801906126dd565b5083600160008363ffffffff1663ffffffff16815260200190815260200160002060030160146101000a81548163ffffffff021916908363ffffffff160217905550600260008963ffffffff1663ffffffff16815260200190815260200160002060030160009054906101000a90046001600160a01b0316600160008363ffffffff1663ffffffff16815260200190815260200160002060030160006101000a8154816001600160a01b0302191690836001600160a01b0316021790555082600160008363ffffffff1663ffffffff16815260200190815260200160002060030160186101000a81548163ffffffff021916908363ffffffff1602179055506124c881600160008463ffffffff1663ffffffff16815260200190815260200160002060030160009054906101000a90046001600160a01b03168a866124e7565b50979650505050505050565b600054600160201b900463ffffffff1681565b6000806000600881819054906101000a900463ffffffff168092919060010191906101000a81548163ffffffff021916908363ffffffff160217905550905085600360008363ffffffff1663ffffffff16815260200190815260200160002060000160006101000a81548163ffffffff021916908363ffffffff16021790555084600360008363ffffffff1663ffffffff168152602001908152602001600020600001600c6101000a8154816001600160a01b0302191690836001600160a01b0316021790555083600360008363ffffffff1663ffffffff16815260200190815260200160002060000160046101000a81548163ffffffff021916908363ffffffff16021790555082600360008363ffffffff1663ffffffff16815260200190815260200160002060000160086101000a81548163ffffffff021916908363ffffffff160217905550600460008763ffffffff1663ffffffff16815260200190815260200160002081908060018154018082558091505090600182039060005260206000209060089182820401919006600402909192909190916101000a81548163ffffffff021916908363ffffffff160217905550508563ffffffff167f4a7c2ed8675655246e11580786ba8a73e92e426d177368a8697ead49925146c260405160405180910390a250600195945050505050565b828054600181600116156101000203166002900490600052602060002090601f016020900481019282601f1061271e57805160ff191683800117855561274b565b8280016001018555821561274b579182015b8281111561274b578251825591602001919060010190612730565b506127579291506127b3565b5090565b604051806080016040528060608152602001606081526020016060815260200160006001600160a01b031681525090565b60408051608081018252600080825260208201819052918101829052606081019190915290565b6127cd91905b8082111561275757600081556001016127b9565b9056fe5061727469636970616e742074797065206d75737420626520274d616e756661637475726572272c2027537570706c69657227206f722027436f6e73756d6572274f6e6c79207468652070726f64756374206f776e65722063616e20646f20746869734f6e6c79206120274d616e756661637475726572272063616e2063726561746520612070726f64756374a265627a7a72315820c023353cf2173d3c9103339eec6c9b28ed799b1e1129ab88373915b1453c697f64736f6c63430005100032",
    "sourcePath": "d:/Projects/supply-chain/contracts/SupplyChain.sol",
    "compiler": {
        "name": "solc",
        "version": "0.5.16+commit.9c3226ce"
    },
    "functionHashes": {
        "authenticateParticipant(uint32,string,string,string)": "721b5743",
        "createParticipant(string,string,address,string)": "89138c00",
        "createProduct(uint32,string,string,string,uint32,uint32)": "d953f305",
        "getParticipantDetails(uint32)": "5617f01e",
        "getProductDetails(uint32)": "28d5b69a",
        "getProductTrack(uint32)": "a8997d2e",
        "getRegistrationDetails(uint32)": "b9d93d5f",
        "p_id()": "043ba46a",
        "participants(uint32)": "7d0a9ac9",
        "productTrack(uint32,uint256)": "1a074802",
        "products(uint32)": "bf712fd6",
        "r_id()": "9dfb56ac",
        "registrations(uint32)": "83a32c55",
        "transferToOwner(uint32,uint32,uint32,uint32)": "997c5147",
        "u_id()": "e9f06d2b"
    },
    "gasEstimates": {
        "creation": {
            "codeDepositCost": "2077200",
            "executionCost": "23037",
            "totalCost": "2100237"
        },
        "external": {
            "authenticateParticipant(uint32,string,string,string)": "infinite",
            "createParticipant(string,string,address,string)": "infinite",
            "createProduct(uint32,string,string,string,uint32,uint32)": "infinite",
            "getParticipantDetails(uint32)": "infinite",
            "getProductDetails(uint32)": "infinite",
            "getProductTrack(uint32)": "infinite",
            "getRegistrationDetails(uint32)": "1618",
            "p_id()": "1037",
            "participants(uint32)": "infinite",
            "productTrack(uint32,uint256)": "3741",
            "products(uint32)": "infinite",
            "r_id()": "1097",
            "registrations(uint32)": "1402",
            "transferToOwner(uint32,uint32,uint32,uint32)": "infinite",
            "u_id()": "1118"
        },
        "internal": {
            "addRegistration(uint32,address,uint32,uint32)": "150577"
        }
    }
}