{
    "contractName": "SupplyChain",
    "abi": [
        {
            "anonymous": false,
            "inputs": [
                {
                    "indexed": false,
                    "internalType": "uint32",
                    "name": "productId",
                    "type": "uint32"
                }
            ],
            "name": "Transfer",
            "type": "event"
        },
        {
            "constant": true,
            "inputs": [
                {
                    "internalType": "uint32",
                    "name": "_uid",
                    "type": "uint32"
                },
                {
                    "internalType": "string",
                    "name": "_uname",
                    "type": "string"
                },
                {
                    "internalType": "string",
                    "name": "_pass",
                    "type": "string"
                },
                {
                    "internalType": "string",
                    "name": "_utype",
                    "type": "string"
                }
            ],
            "name": "authenticateParticipant",
            "outputs": [
                {
                    "internalType": "bool",
                    "name": "",
                    "type": "bool"
                }
            ],
            "payable": false,
            "stateMutability": "view",
            "type": "function"
        },
        {
            "constant": false,
            "inputs": [
                {
                    "internalType": "string",
                    "name": "_name",
                    "type": "string"
                },
                {
                    "internalType": "string",
                    "name": "_pass",
                    "type": "string"
                },
                {
                    "internalType": "address",
                    "name": "_pAdd",
                    "type": "address"
                },
                {
                    "internalType": "string",
                    "name": "_pType",
                    "type": "string"
                }
            ],
            "name": "createParticipant",
            "outputs": [
                {
                    "internalType": "uint32",
                    "name": "",
                    "type": "uint32"
                }
            ],
            "payable": false,
            "stateMutability": "nonpayable",
            "type": "function"
        },
        {
            "constant": false,
            "inputs": [
                {
                    "internalType": "uint32",
                    "name": "_ownerId",
                    "type": "uint32"
                },
                {
                    "internalType": "string",
                    "name": "_modelNumber",
                    "type": "string"
                },
                {
                    "internalType": "string",
                    "name": "_partNumber",
                    "type": "string"
                },
                {
                    "internalType": "string",
                    "name": "_serialNumber",
                    "type": "string"
                },
                {
                    "internalType": "uint32",
                    "name": "_productCost",
                    "type": "uint32"
                }
            ],
            "name": "createProduct",
            "outputs": [
                {
                    "internalType": "uint32",
                    "name": "",
                    "type": "uint32"
                }
            ],
            "payable": false,
            "stateMutability": "nonpayable",
            "type": "function"
        },
        {
            "constant": true,
            "inputs": [
                {
                    "internalType": "uint32",
                    "name": "_p_id",
                    "type": "uint32"
                }
            ],
            "name": "getParticipantDetails",
            "outputs": [
                {
                    "internalType": "string",
                    "name": "",
                    "type": "string"
                },
                {
                    "internalType": "address",
                    "name": "",
                    "type": "address"
                },
                {
                    "internalType": "string",
                    "name": "",
                    "type": "string"
                }
            ],
            "payable": false,
            "stateMutability": "view",
            "type": "function"
        },
        {
            "constant": true,
            "inputs": [
                {
                    "internalType": "uint32",
                    "name": "_productId",
                    "type": "uint32"
                }
            ],
            "name": "getProductDetails",
            "outputs": [
                {
                    "internalType": "string",
                    "name": "",
                    "type": "string"
                },
                {
                    "internalType": "string",
                    "name": "",
                    "type": "string"
                },
                {
                    "internalType": "string",
                    "name": "",
                    "type": "string"
                },
                {
                    "internalType": "uint32",
                    "name": "",
                    "type": "uint32"
                },
                {
                    "internalType": "address",
                    "name": "",
                    "type": "address"
                },
                {
                    "internalType": "uint32",
                    "name": "",
                    "type": "uint32"
                }
            ],
            "payable": false,
            "stateMutability": "view",
            "type": "function"
        },
        {
            "constant": true,
            "inputs": [
                {
                    "internalType": "uint32",
                    "name": "_prodId",
                    "type": "uint32"
                }
            ],
            "name": "getProductTrack",
            "outputs": [
                {
                    "internalType": "uint32[]",
                    "name": "",
                    "type": "uint32[]"
                }
            ],
            "payable": false,
            "stateMutability": "view",
            "type": "function"
        },
        {
            "constant": true,
            "inputs": [
                {
                    "internalType": "uint32",
                    "name": "_regId",
                    "type": "uint32"
                }
            ],
            "name": "getRegistrationDetails",
            "outputs": [
                {
                    "internalType": "uint32",
                    "name": "",
                    "type": "uint32"
                },
                {
                    "internalType": "uint32",
                    "name": "",
                    "type": "uint32"
                },
                {
                    "internalType": "address",
                    "name": "",
                    "type": "address"
                },
                {
                    "internalType": "uint32",
                    "name": "",
                    "type": "uint32"
                }
            ],
            "payable": false,
            "stateMutability": "view",
            "type": "function"
        },
        {
            "constant": true,
            "inputs": [],
            "name": "p_id",
            "outputs": [
                {
                    "internalType": "uint32",
                    "name": "",
                    "type": "uint32"
                }
            ],
            "payable": false,
            "stateMutability": "view",
            "type": "function"
        },
        {
            "constant": true,
            "inputs": [
                {
                    "internalType": "uint32",
                    "name": "",
                    "type": "uint32"
                }
            ],
            "name": "participants",
            "outputs": [
                {
                    "internalType": "string",
                    "name": "userName",
                    "type": "string"
                },
                {
                    "internalType": "string",
                    "name": "password",
                    "type": "string"
                },
                {
                    "internalType": "string",
                    "name": "participantType",
                    "type": "string"
                },
                {
                    "internalType": "address",
                    "name": "participantAddress",
                    "type": "address"
                }
            ],
            "payable": false,
            "stateMutability": "view",
            "type": "function"
        },
        {
            "constant": true,
            "inputs": [
                {
                    "internalType": "uint32",
                    "name": "",
                    "type": "uint32"
                },
                {
                    "internalType": "uint256",
                    "name": "",
                    "type": "uint256"
                }
            ],
            "name": "productTrack",
            "outputs": [
                {
                    "internalType": "uint32",
                    "name": "",
                    "type": "uint32"
                }
            ],
            "payable": false,
            "stateMutability": "view",
            "type": "function"
        },
        {
            "constant": true,
            "inputs": [
                {
                    "internalType": "uint32",
                    "name": "",
                    "type": "uint32"
                }
            ],
            "name": "products",
            "outputs": [
                {
                    "internalType": "string",
                    "name": "modelNumber",
                    "type": "string"
                },
                {
                    "internalType": "string",
                    "name": "partNumber",
                    "type": "string"
                },
                {
                    "internalType": "string",
                    "name": "serialNumber",
                    "type": "string"
                },
                {
                    "internalType": "address",
                    "name": "productOwner",
                    "type": "address"
                },
                {
                    "internalType": "uint32",
                    "name": "cost",
                    "type": "uint32"
                },
                {
                    "internalType": "uint32",
                    "name": "mfgTimeStamp",
                    "type": "uint32"
                }
            ],
            "payable": false,
            "stateMutability": "view",
            "type": "function"
        },
        {
            "constant": true,
            "inputs": [],
            "name": "r_id",
            "outputs": [
                {
                    "internalType": "uint32",
                    "name": "",
                    "type": "uint32"
                }
            ],
            "payable": false,
            "stateMutability": "view",
            "type": "function"
        },
        {
            "constant": true,
            "inputs": [
                {
                    "internalType": "uint32",
                    "name": "",
                    "type": "uint32"
                }
            ],
            "name": "registrations",
            "outputs": [
                {
                    "internalType": "uint32",
                    "name": "productId",
                    "type": "uint32"
                },
                {
                    "internalType": "uint32",
                    "name": "ownerId",
                    "type": "uint32"
                },
                {
                    "internalType": "uint32",
                    "name": "trxTimeStamp",
                    "type": "uint32"
                },
                {
                    "internalType": "address",
                    "name": "productOwner",
                    "type": "address"
                }
            ],
            "payable": false,
            "stateMutability": "view",
            "type": "function"
        },
        {
            "constant": false,
            "inputs": [
                {
                    "internalType": "uint32",
                    "name": "_user1Id",
                    "type": "uint32"
                },
                {
                    "internalType": "uint32",
                    "name": "_user2Id",
                    "type": "uint32"
                },
                {
                    "internalType": "uint32",
                    "name": "_prodId",
                    "type": "uint32"
                }
            ],
            "name": "transferToOwner",
            "outputs": [
                {
                    "internalType": "bool",
                    "name": "",
                    "type": "bool"
                }
            ],
            "payable": false,
            "stateMutability": "nonpayable",
            "type": "function"
        },
        {
            "constant": true,
            "inputs": [],
            "name": "u_id",
            "outputs": [
                {
                    "internalType": "uint32",
                    "name": "",
                    "type": "uint32"
                }
            ],
            "payable": false,
            "stateMutability": "view",
            "type": "function"
        }
    ],
    "bytecode": "6080604052600080546001600160601b031916905534801561002057600080fd5b5061278f806100306000396000f3fe608060405234801561001057600080fd5b50600436106100f55760003560e01c806383a32c5511610097578063b9d93d5f11610066578063b9d93d5f146109fb578063bf712fd614610a57578063e9f06d2b14610ade578063f79e547b14610ae6576100f5565b806383a32c551461076457806389138c00146107c15780639dfb56ac14610980578063a8997d2e14610988576100f5565b80635617f01e116100d35780635617f01e146102d05780636083b3ff146103ea578063721b5743146104335780637d0a9ac9146105ee576100f5565b8063043ba46a146100fa5780631a0748021461011b57806328d5b69a14610144575b600080fd5b610102610ca9565b6040805163ffffffff9092168252519081900360200190f35b6101026004803603604081101561013157600080fd5b5063ffffffff8135169060200135610cb5565b6101676004803603602081101561015a57600080fd5b503563ffffffff16610cfb565b6040805163ffffffff80861660608301526001600160a01b0385166080830152831660a082015260c080825288519082015287519091829160208084019284019160e08501918c019080838360005b838110156101ce5781810151838201526020016101b6565b50505050905090810190601f1680156101fb5780820380516001836020036101000a031916815260200191505b5084810383528951815289516020918201918b019080838360005b8381101561022e578181015183820152602001610216565b50505050905090810190601f16801561025b5780820380516001836020036101000a031916815260200191505b5084810382528851815288516020918201918a019080838360005b8381101561028e578181015183820152602001610276565b50505050905090810190601f1680156102bb5780820380516001836020036101000a031916815260200191505b50995050505050505050505060405180910390f35b6102f3600480360360208110156102e657600080fd5b503563ffffffff16610f04565b6040518080602001846001600160a01b03166001600160a01b0316815260200180602001838103835286818151815260200191508051906020019080838360005b8381101561034c578181015183820152602001610334565b50505050905090810190601f1680156103795780820380516001836020036101000a031916815260200191505b50838103825284518152845160209182019186019080838360005b838110156103ac578181015183820152602001610394565b50505050905090810190601f1680156103d95780820380516001836020036101000a031916815260200191505b509550505050505060405180910390f35b61041f6004803603606081101561040057600080fd5b5063ffffffff8135811691602081013582169160409091013516611058565b604080519115158252519081900360200190f35b61041f6004803603608081101561044957600080fd5b63ffffffff8235169190810190604081016020820135600160201b81111561047057600080fd5b82018360208201111561048257600080fd5b803590602001918460018302840111600160201b831117156104a357600080fd5b91908080601f0160208091040260200160405190810160405280939291908181526020018383808284376000920191909152509295949360208101935035915050600160201b8111156104f557600080fd5b82018360208201111561050757600080fd5b803590602001918460018302840111600160201b8311171561052857600080fd5b91908080601f0160208091040260200160405190810160405280939291908181526020018383808284376000920191909152509295949360208101935035915050600160201b81111561057a57600080fd5b82018360208201111561058c57600080fd5b803590602001918460018302840111600160201b831117156105ad57600080fd5b91908080601f016020809104026020016040519081016040528093929190818152602001838380828437600092019190915250929550611789945050505050565b6106116004803603602081101561060457600080fd5b503563ffffffff16611acc565b604080516001600160a01b0383166060820152608080825286519082015285519091829160208084019284019160a08501918a019080838360005b8381101561066457818101518382015260200161064c565b50505050905090810190601f1680156106915780820380516001836020036101000a031916815260200191505b50848103835287518152875160209182019189019080838360005b838110156106c45781810151838201526020016106ac565b50505050905090810190601f1680156106f15780820380516001836020036101000a031916815260200191505b50848103825286518152865160209182019188019080838360005b8381101561072457818101518382015260200161070c565b50505050905090810190601f1680156107515780820380516001836020036101000a031916815260200191505b5097505050505050505060405180910390f35b6107876004803603602081101561077a57600080fd5b503563ffffffff16611ca6565b6040805163ffffffff9586168152938516602085015291909316828201526001600160a01b03909216606082015290519081900360800190f35b610102600480360360808110156107d757600080fd5b810190602081018135600160201b8111156107f157600080fd5b82018360208201111561080357600080fd5b803590602001918460018302840111600160201b8311171561082457600080fd5b91908080601f0160208091040260200160405190810160405280939291908181526020018383808284376000920191909152509295949360208101935035915050600160201b81111561087657600080fd5b82018360208201111561088857600080fd5b803590602001918460018302840111600160201b831117156108a957600080fd5b91908080601f01602080910402602001604051908101604052809392919081815260200183838082843760009201919091525092956001600160a01b03853516959094909350604081019250602001359050600160201b81111561090c57600080fd5b82018360208201111561091e57600080fd5b803590602001918460018302840111600160201b8311171561093f57600080fd5b91908080601f016020809104026020016040519081016040528093929190818152602001838380828437600092019190915250929550611ce4945050505050565b610102611ed5565b6109ab6004803603602081101561099e57600080fd5b503563ffffffff16611ee8565b60408051602080825283518183015283519192839290830191858101910280838360005b838110156109e75781810151838201526020016109cf565b505050509050019250505060405180910390f35b610a1e60048036036020811015610a1157600080fd5b503563ffffffff16611f7d565b6040805163ffffffff958616815293851660208501526001600160a01b0390921683830152909216606082015290519081900360800190f35b610a7a60048036036020811015610a6d57600080fd5b503563ffffffff16611ff8565b604080516001600160a01b038516606082015263ffffffff8481166080830152831660a082015260c080825288519082015287519091829160208084019284019160e08501918c0190808383600083156101ce5781810151838201526020016101b6565b6101026121ec565b610102600480360360a0811015610afc57600080fd5b63ffffffff8235169190810190604081016020820135600160201b811115610b2357600080fd5b820183602082011115610b3557600080fd5b803590602001918460018302840111600160201b83111715610b5657600080fd5b91908080601f0160208091040260200160405190810160405280939291908181526020018383808284376000920191909152509295949360208101935035915050600160201b811115610ba857600080fd5b820183602082011115610bba57600080fd5b803590602001918460018302840111600160201b83111715610bdb57600080fd5b91908080601f0160208091040260200160405190810160405280939291908181526020018383808284376000920191909152509295949360208101935035915050600160201b811115610c2d57600080fd5b820183602082011115610c3f57600080fd5b803590602001918460018302840111600160201b83111715610c6057600080fd5b91908080601f0160208091040260200160405190810160405280939291908181526020018383808284376000920191909152509295505050903563ffffffff1691506121ff9050565b60005463ffffffff1681565b60046020528160005260406000208181548110610cce57fe5b9060005260206000209060089182820401919006600402915091509054906101000a900463ffffffff1681565b63ffffffff81811660009081526001602081815260408084206003810154815483516002610100838916150260001901909216829004601f8101879004870282018701909552848152606098899889989097889788979692870195870194600160a01b84048516946001600160a01b03851694600160c01b9004169290918891830182828015610dcc5780601f10610da157610100808354040283529160200191610dcc565b820191906000526020600020905b815481529060010190602001808311610daf57829003601f168201915b5050885460408051602060026001851615610100026000190190941693909304601f8101849004840282018401909252818152959b508a945092508401905082828015610e5a5780601f10610e2f57610100808354040283529160200191610e5a565b820191906000526020600020905b815481529060010190602001808311610e3d57829003601f168201915b5050875460408051602060026001851615610100026000190190941693909304601f8101849004840282018401909252818152959a5089945092508401905082828015610ee85780601f10610ebd57610100808354040283529160200191610ee8565b820191906000526020600020905b815481529060010190602001808311610ecb57829003601f168201915b5050505050935095509550955095509550955091939550919395565b63ffffffff8116600090815260026020818152604080842060038101548154835161010060018316150260001901909116869004601f810186900486028201860190945283815260609695879593946001600160a01b0390931693908501928591830182828015610fb65780601f10610f8b57610100808354040283529160200191610fb6565b820191906000526020600020905b815481529060010190602001808311610f9957829003601f168201915b5050845460408051602060026001851615610100026000190190941693909304601f8101849004840282018401909252818152959850869450925084019050828280156110445780601f1061101957610100808354040283529160200191611044565b820191906000526020600020905b81548152906001019060200180831161102757829003601f168201915b505050505090509250925092509193909250565b63ffffffff811660009081526001602052604081206003015482906001600160a01b031633146110b95760405162461bcd60e51b81526004018080602001828103825260228152602001806127396022913960400191505060405180910390fd5b6110c1612604565b63ffffffff86166000908152600260208181526040928390208351815460a0601f600019610100600185161502019092169590950490810184900490930281018401909452608084018281529092849284918401828280156111645780601f1061113957610100808354040283529160200191611164565b820191906000526020600020905b81548152906001019060200180831161114757829003601f168201915b50505050508152602001600182018054600181600116156101000203166002900480601f0160208091040260200160405190810160405280929190818152602001828054600181600116156101000203166002900480156112065780601f106111db57610100808354040283529160200191611206565b820191906000526020600020905b8154815290600101906020018083116111e957829003601f168201915b5050509183525050600282810180546040805160206001841615610100026000190190931694909404601f810183900483028501830190915280845293810193908301828280156112985780601f1061126d57610100808354040283529160200191611298565b820191906000526020600020905b81548152906001019060200180831161127b57829003601f168201915b5050509183525050600391909101546001600160a01b031660209091015290506112c0612604565b63ffffffff86166000908152600260208181526040928390208351815460a0601f600019610100600185161502019092169590950490810184900490930281018401909452608084018281529092849284918401828280156113635780601f1061133857610100808354040283529160200191611363565b820191906000526020600020905b81548152906001019060200180831161134657829003601f168201915b50505050508152602001600182018054600181600116156101000203166002900480601f0160208091040260200160405190810160405280929190818152602001828054600181600116156101000203166002900480156114055780601f106113da57610100808354040283529160200191611405565b820191906000526020600020905b8154815290600101906020018083116113e857829003601f168201915b5050509183525050600282810180546040805160206001841615610100026000190190931694909404601f810183900483028501830190915280845293810193908301828280156114975780601f1061146c57610100808354040283529160200191611497565b820191906000526020600020905b81548152906001019060200180831161147a57829003601f168201915b5050509183525050600391909101546001600160a01b03166020918201526040808501519051815193945060009391929081019182918401908083835b602083106114f35780518252601f1990920191602091820191016114d4565b6001836020036101000a038019825116818451168082178552505050505050905001915050604051602081830303815290604052805190602001209050600082604001516040516020018082805190602001908083835b602083106115695780518252601f19909201916020918201910161154a565b6001836020036101000a03801982511681845116808217855250505050505090500191505060405160208183030381529060405280519060200120905060405180806b26b0b73ab330b1ba3ab932b960a11b815250600c0190506040518091039020821480156115f45750604080516729bab8383634b2b960c11b8152905190819003600801902081145b156116505760608301805163ffffffff8916600090815260016020526040902060030180546001600160a01b0319166001600160a01b03909216919091179055516116429088908a426123fe565b506001955050505050611781565b604080516729bab8383634b2b960c11b81529051908190036008019020821480156116965750604080516729bab8383634b2b960c11b8152905190819003600801902081145b156116e45760608301805163ffffffff8916600090815260016020526040902060030180546001600160a01b0319166001600160a01b03909216919091179055516116429088908a426123fe565b604080516729bab8383634b2b960c11b815290519081900360080190208214801561172a5750604080516721b7b739bab6b2b960c11b8152905190819003600801902081145b156117785760608301805163ffffffff8916600090815260016020526040902060030180546001600160a01b0319166001600160a01b03909216919091179055516116429088908a426123fe565b60009550505050505b509392505050565b6000816040516020018082805190602001908083835b602083106117be5780518252601f19909201916020918201910161179f565b6001836020036101000a03801982511681845116808217855250505050505090500191505060405160208183030381529060405280519060200120600260008763ffffffff1663ffffffff16815260200190815260200160002060020160405160200180828054600181600116156101000203166002900480156118795780601f10611857576101008083540402835291820191611879565b820191906000526020600020905b815481529060010190602001808311611865575b5050915050604051602081830303815290604052805190602001201415611ac057836040516020018082805190602001908083835b602083106118cd5780518252601f1990920191602091820191016118ae565b6001836020036101000a03801982511681845116808217855250505050505090500191505060405160208183030381529060405280519060200120600260008763ffffffff1663ffffffff16815260200190815260200160002060000160405160200180828054600181600116156101000203166002900480156119885780601f10611966576101008083540402835291820191611988565b820191906000526020600020905b815481529060010190602001808311611974575b5050915050604051602081830303815290604052805190602001201415611ac057826040516020018082805190602001908083835b602083106119dc5780518252601f1990920191602091820191016119bd565b6001836020036101000a03801982511681845116808217855250505050505090500191505060405160208183030381529060405280519060200120600260008763ffffffff1663ffffffff1681526020019081526020016000206001016040516020018082805460018160011615610100020316600290048015611a975780601f10611a75576101008083540402835291820191611a97565b820191906000526020600020905b815481529060010190602001808311611a83575b5050915050604051602081830303815290604052805190602001201415611ac057506001611ac4565b5060005b949350505050565b600260208181526000928352604092839020805484516001821615610100026000190190911693909304601f8101839004830284018301909452838352928391830182828015611b5d5780601f10611b3257610100808354040283529160200191611b5d565b820191906000526020600020905b815481529060010190602001808311611b4057829003601f168201915b505050505090806001018054600181600116156101000203166002900480601f016020809104026020016040519081016040528092919081815260200182805460018160011615610100020316600290048015611bfb5780601f10611bd057610100808354040283529160200191611bfb565b820191906000526020600020905b815481529060010190602001808311611bde57829003601f168201915b50505060028085018054604080516020601f6000196101006001871615020190941695909504928301859004850281018501909152818152959695945090925090830182828015611c8d5780601f10611c6257610100808354040283529160200191611c8d565b820191906000526020600020905b815481529060010190602001808311611c7057829003601f168201915b505050600390930154919250506001600160a01b031684565b60036020526000908152604090205463ffffffff80821691600160201b8104821691600160401b82041690600160601b90046001600160a01b031684565b600080826040516020018082805190602001908083835b60208310611d1a5780518252601f199092019160209182019101611cfb565b6001836020036101000a03801982511681845116808217855250505050505090500191505060405160208183030381529060405280519060200120905060405180806b26b0b73ab330b1ba3ab932b960a11b815250600c0190506040518091039020811480611da45750604080516729bab8383634b2b960c11b8152905190819003600801902081145b80611dca5750604080516721b7b739bab6b2b960c11b8152905190819003600801902081145b611e055760405162461bcd60e51b81526004018080602001828103825260418152602001806126f86041913960600191505060405180910390fd5b6000805467ffffffff00000000198116600160201b9182900463ffffffff9081166001810190911690920217825580825260026020908152604090922088519192611e5392908a0190612635565b5063ffffffff811660009081526002602090815260409091208751611e8092600190920191890190612635565b5063ffffffff811660009081526002602081815260409092206003810180546001600160a01b0319166001600160a01b038a161790558651611eca93919092019190870190612635565b509695505050505050565b600054600160401b900463ffffffff1681565b63ffffffff8116600090815260046020908152604091829020805483518184028101840190945280845260609392830182828015611f7157602002820191906000526020600020906000905b82829054906101000a900463ffffffff1663ffffffff1681526020019060040190602082600301049283019260010382029150808411611f345790505b50505050509050919050565b600080600080611f8b6126b3565b5050505063ffffffff91821660009081526003602090815260409182902082516080810184529054808616808352600160201b82048716938301849052600160401b8204909616938201849052600160601b90046001600160a01b03166060909101819052939490939250565b60016020818152600092835260409283902080548451600294821615610100026000190190911693909304601f810183900483028401830190945283835292839183018282801561208a5780601f1061205f5761010080835404028352916020019161208a565b820191906000526020600020905b81548152906001019060200180831161206d57829003601f168201915b505050505090806001018054600181600116156101000203166002900480601f0160208091040260200160405190810160405280929190818152602001828054600181600116156101000203166002900480156121285780601f106120fd57610100808354040283529160200191612128565b820191906000526020600020905b81548152906001019060200180831161210b57829003601f168201915b50505060028085018054604080516020601f60001961010060018716150201909416959095049283018590048502810185019091528181529596959450909250908301828280156121ba5780601f1061218f576101008083540402835291602001916121ba565b820191906000526020600020905b81548152906001019060200180831161219d57829003601f168201915b505050600390930154919250506001600160a01b0381169063ffffffff600160a01b8204811691600160c01b90041686565b600054600160201b900463ffffffff1681565b604080516b26b0b73ab330b1ba3ab932b960a11b8152815190819003600c01812063ffffffff88166000908152600260208181529482208101805492959394909301918291849160001961010060018316150201160480156122985780601f10612276576101008083540402835291820191612298565b820191906000526020600020905b815481529060010190602001808311612284575b50509150506040516020818303038152906040528051906020012014156123f1576000805463ffffffff198116600163ffffffff92831681810190931691909117835581835260209081526040909220875191926122f99290890190612635565b5063ffffffff81166000908152600160208181526040909220875161232693919092019190880190612635565b5063ffffffff81166000908152600160209081526040909120855161235392600290920191870190612635565b5063ffffffff81811660008181526001602081815260408084206003908101805463ffffffff60a01b1916600160a01b8c8a1602178082558f891687526002855292862090910154959094529190526001600160a01b039283166001600160a01b03199091161763ffffffff60c01b1916600160c01b428516810291909117918290556123e99385938316928c929004166123fe565b5090506123f5565b5060005b95945050505050565b6000806000600881819054906101000a900463ffffffff168092919060010191906101000a81548163ffffffff021916908363ffffffff160217905550905085600360008363ffffffff1663ffffffff16815260200190815260200160002060000160006101000a81548163ffffffff021916908363ffffffff16021790555084600360008363ffffffff1663ffffffff168152602001908152602001600020600001600c6101000a8154816001600160a01b0302191690836001600160a01b0316021790555083600360008363ffffffff1663ffffffff16815260200190815260200160002060000160046101000a81548163ffffffff021916908363ffffffff16021790555082600360008363ffffffff1663ffffffff16815260200190815260200160002060000160086101000a81548163ffffffff021916908363ffffffff160217905550600460008763ffffffff1663ffffffff16815260200190815260200160002081908060018154018082558091505090600182039060005260206000209060089182820401919006600402909192909190916101000a81548163ffffffff021916908363ffffffff160217905550507f4a7c2ed8675655246e11580786ba8a73e92e426d177368a8697ead49925146c286604051808263ffffffff1663ffffffff16815260200191505060405180910390a150600195945050505050565b604051806080016040528060608152602001606081526020016060815260200160006001600160a01b031681525090565b828054600181600116156101000203166002900490600052602060002090601f016020900481019282601f1061267657805160ff19168380011785556126a3565b828001600101855582156126a3579182015b828111156126a3578251825591602001919060010190612688565b506126af9291506126da565b5090565b60408051608081018252600080825260208201819052918101829052606081019190915290565b6126f491905b808211156126af57600081556001016126e0565b9056fe5061727469636970616e742074797065206d75737420626520274d616e756661637475726572272c2027537570706c69657227206f722027436f6e73756d6572274f6e6c79207468652070726f64756374206f776e65722063616e20646f2074686973a265627a7a723158203d876c4c862167563f07857cc25acdc47e804ee2769317f9b10fc379e48ade9664736f6c63430005100032",
    "sourcePath": "d:/Projects/supply-chain/contracts/SupplyChain.sol",
    "compiler": {
        "name": "solc",
        "version": "0.5.16+commit.9c3226ce"
    },
    "functionHashes": {
        "authenticateParticipant(uint32,string,string,string)": "721b5743",
        "createParticipant(string,string,address,string)": "89138c00",
        "createProduct(uint32,string,string,string,uint32)": "f79e547b",
        "getParticipantDetails(uint32)": "5617f01e",
        "getProductDetails(uint32)": "28d5b69a",
        "getProductTrack(uint32)": "a8997d2e",
        "getRegistrationDetails(uint32)": "b9d93d5f",
        "p_id()": "043ba46a",
        "participants(uint32)": "7d0a9ac9",
        "productTrack(uint32,uint256)": "1a074802",
        "products(uint32)": "bf712fd6",
        "r_id()": "9dfb56ac",
        "registrations(uint32)": "83a32c55",
        "transferToOwner(uint32,uint32,uint32)": "6083b3ff",
        "u_id()": "e9f06d2b"
    },
    "gasEstimates": {
        "creation": {
            "codeDepositCost": "2025400",
            "executionCost": "22979",
            "totalCost": "2048379"
        },
        "external": {
            "authenticateParticipant(uint32,string,string,string)": "infinite",
            "createParticipant(string,string,address,string)": "infinite",
            "createProduct(uint32,string,string,string,uint32)": "infinite",
            "getParticipantDetails(uint32)": "infinite",
            "getProductDetails(uint32)": "infinite",
            "getProductTrack(uint32)": "infinite",
            "getRegistrationDetails(uint32)": "1618",
            "p_id()": "1037",
            "participants(uint32)": "infinite",
            "productTrack(uint32,uint256)": "3741",
            "products(uint32)": "infinite",
            "r_id()": "1097",
            "registrations(uint32)": "1336",
            "transferToOwner(uint32,uint32,uint32)": "infinite",
            "u_id()": "1096"
        },
        "internal": {
            "addRegistration(uint32,address,uint32,uint32)": "infinite"
        }
    }
}